{
  "contractName": "DigitalArt",
  "abi": [
    {
      "inputs": [
        {
          "internalType": "string",
          "name": "name",
          "type": "string"
        },
        {
          "internalType": "string",
          "name": "symbol",
          "type": "string"
        }
      ],
      "stateMutability": "nonpayable",
      "type": "constructor"
    },
    {
      "anonymous": false,
      "inputs": [
        {
          "indexed": true,
          "internalType": "address",
          "name": "owner",
          "type": "address"
        },
        {
          "indexed": true,
          "internalType": "address",
          "name": "approved",
          "type": "address"
        },
        {
          "indexed": true,
          "internalType": "uint256",
          "name": "tokenId",
          "type": "uint256"
        }
      ],
      "name": "Approval",
      "type": "event"
    },
    {
      "anonymous": false,
      "inputs": [
        {
          "indexed": true,
          "internalType": "address",
          "name": "owner",
          "type": "address"
        },
        {
          "indexed": true,
          "internalType": "address",
          "name": "operator",
          "type": "address"
        },
        {
          "indexed": false,
          "internalType": "bool",
          "name": "approved",
          "type": "bool"
        }
      ],
      "name": "ApprovalForAll",
      "type": "event"
    },
    {
      "anonymous": false,
      "inputs": [
        {
          "indexed": false,
          "internalType": "uint256",
          "name": "_tokenId",
          "type": "uint256"
        },
        {
          "indexed": false,
          "internalType": "uint256",
          "name": "_status",
          "type": "uint256"
        },
        {
          "indexed": false,
          "internalType": "uint256",
          "name": "_price",
          "type": "uint256"
        }
      ],
      "name": "LogArtResell",
      "type": "event"
    },
    {
      "anonymous": false,
      "inputs": [
        {
          "indexed": false,
          "internalType": "uint256",
          "name": "_tokenId",
          "type": "uint256"
        },
        {
          "indexed": false,
          "internalType": "string",
          "name": "_title",
          "type": "string"
        },
        {
          "indexed": false,
          "internalType": "string",
          "name": "_authorName",
          "type": "string"
        },
        {
          "indexed": false,
          "internalType": "uint256",
          "name": "_price",
          "type": "uint256"
        },
        {
          "indexed": false,
          "internalType": "address",
          "name": "_author",
          "type": "address"
        },
        {
          "indexed": false,
          "internalType": "address",
          "name": "_current_owner",
          "type": "address"
        },
        {
          "indexed": false,
          "internalType": "address",
          "name": "_buyer",
          "type": "address"
        }
      ],
      "name": "LogArtSold",
      "type": "event"
    },
    {
      "anonymous": false,
      "inputs": [
        {
          "indexed": false,
          "internalType": "uint256",
          "name": "_tokenId",
          "type": "uint256"
        },
        {
          "indexed": false,
          "internalType": "string",
          "name": "_title",
          "type": "string"
        },
        {
          "indexed": false,
          "internalType": "string",
          "name": "_category",
          "type": "string"
        },
        {
          "indexed": false,
          "internalType": "string",
          "name": "_authorName",
          "type": "string"
        },
        {
          "indexed": false,
          "internalType": "uint256",
          "name": "_price",
          "type": "uint256"
        },
        {
          "indexed": false,
          "internalType": "address",
          "name": "_author",
          "type": "address"
        },
        {
          "indexed": false,
          "internalType": "address",
          "name": "_current_owner",
          "type": "address"
        }
      ],
      "name": "LogArtTokenCreate",
      "type": "event"
    },
    {
      "anonymous": false,
      "inputs": [
        {
          "indexed": true,
          "internalType": "address",
          "name": "from",
          "type": "address"
        },
        {
          "indexed": true,
          "internalType": "address",
          "name": "to",
          "type": "address"
        },
        {
          "indexed": true,
          "internalType": "uint256",
          "name": "tokenId",
          "type": "uint256"
        }
      ],
      "name": "Transfer",
      "type": "event"
    },
    {
      "inputs": [
        {
          "internalType": "uint256",
          "name": "",
          "type": "uint256"
        }
      ],
      "name": "arts",
      "outputs": [
        {
          "internalType": "uint256",
          "name": "id",
          "type": "uint256"
        },
        {
          "internalType": "string",
          "name": "title",
          "type": "string"
        },
        {
          "internalType": "string",
          "name": "description",
          "type": "string"
        },
        {
          "internalType": "uint256",
          "name": "price",
          "type": "uint256"
        },
        {
          "internalType": "string",
          "name": "date",
          "type": "string"
        },
        {
          "internalType": "string",
          "name": "authorName",
          "type": "string"
        },
        {
          "internalType": "address payable",
          "name": "author",
          "type": "address"
        },
        {
          "internalType": "address payable",
          "name": "owner",
          "type": "address"
        },
        {
          "internalType": "uint256",
          "name": "status",
          "type": "uint256"
        },
        {
          "internalType": "string",
          "name": "image",
          "type": "string"
        }
      ],
      "stateMutability": "view",
      "type": "function",
      "constant": true
    },
    {
      "inputs": [],
      "name": "index",
      "outputs": [
        {
          "internalType": "uint256",
          "name": "",
          "type": "uint256"
        }
      ],
      "stateMutability": "view",
      "type": "function",
      "constant": true
    },
    {
      "inputs": [],
      "name": "getName",
      "outputs": [
        {
          "internalType": "string",
          "name": "",
          "type": "string"
        }
      ],
      "stateMutability": "view",
      "type": "function",
      "constant": true
    },
    {
      "inputs": [],
      "name": "getSymbol",
      "outputs": [
        {
          "internalType": "string",
          "name": "",
          "type": "string"
        }
      ],
      "stateMutability": "view",
      "type": "function",
      "constant": true
    },
    {
      "inputs": [
        {
          "internalType": "string",
          "name": "_title",
          "type": "string"
        },
        {
          "internalType": "string",
          "name": "_description",
          "type": "string"
        },
        {
          "internalType": "string",
          "name": "_date",
          "type": "string"
        },
        {
          "internalType": "string",
          "name": "_authorName",
          "type": "string"
        },
        {
          "internalType": "uint256",
          "name": "_price",
          "type": "uint256"
        },
        {
          "internalType": "string",
          "name": "_image",
          "type": "string"
        }
      ],
      "name": "createTokenAndSellArt",
      "outputs": [],
      "stateMutability": "nonpayable",
      "type": "function"
    },
    {
      "inputs": [
        {
          "internalType": "uint256",
          "name": "_tokenId",
          "type": "uint256"
        }
      ],
      "name": "buyArt",
      "outputs": [],
      "stateMutability": "payable",
      "type": "function",
      "payable": true
    },
    {
      "inputs": [
        {
          "internalType": "uint256",
          "name": "_tokenId",
          "type": "uint256"
        },
        {
          "internalType": "uint256",
          "name": "_price",
          "type": "uint256"
        }
      ],
      "name": "resellArt",
      "outputs": [],
      "stateMutability": "payable",
      "type": "function",
      "payable": true
    },
    {
      "inputs": [
        {
          "internalType": "uint256",
          "name": "_tokenId",
          "type": "uint256"
        }
      ],
      "name": "findArt",
      "outputs": [
        {
          "internalType": "uint256",
          "name": "",
          "type": "uint256"
        },
        {
          "internalType": "string",
          "name": "",
          "type": "string"
        },
        {
          "internalType": "string",
          "name": "",
          "type": "string"
        },
        {
          "internalType": "uint256",
          "name": "",
          "type": "uint256"
        },
        {
          "internalType": "uint256",
          "name": "status",
          "type": "uint256"
        },
        {
          "internalType": "string",
          "name": "",
          "type": "string"
        },
        {
          "internalType": "string",
          "name": "",
          "type": "string"
        },
        {
          "internalType": "address",
          "name": "",
          "type": "address"
        },
        {
          "internalType": "address payable",
          "name": "",
          "type": "address"
        },
        {
          "internalType": "string",
          "name": "",
          "type": "string"
        }
      ],
      "stateMutability": "view",
      "type": "function",
      "constant": true
    },
    {
      "inputs": [],
      "name": "findMyArts",
      "outputs": [
        {
          "internalType": "uint256[]",
          "name": "_myArts",
          "type": "uint256[]"
        }
      ],
      "stateMutability": "view",
      "type": "function",
      "constant": true
    },
    {
      "inputs": [],
      "name": "findAllPendingArt",
      "outputs": [
        {
          "internalType": "uint256[]",
          "name": "",
          "type": "uint256[]"
        },
        {
          "internalType": "address[]",
          "name": "",
          "type": "address[]"
        },
        {
          "internalType": "address[]",
          "name": "",
          "type": "address[]"
        },
        {
          "internalType": "uint256[]",
          "name": "",
          "type": "uint256[]"
        }
      ],
      "stateMutability": "view",
      "type": "function",
      "constant": true
    },
    {
      "inputs": [
        {
          "internalType": "uint256",
          "name": "_tokenId",
          "type": "uint256"
        }
      ],
      "name": "getArtAllTxn",
      "outputs": [
        {
          "internalType": "uint256[]",
          "name": "_id",
          "type": "uint256[]"
        },
        {
          "internalType": "uint256[]",
          "name": "_price",
          "type": "uint256[]"
        },
        {
          "internalType": "address[]",
          "name": "seller",
          "type": "address[]"
        },
        {
          "internalType": "address[]",
          "name": "buyer",
          "type": "address[]"
        },
        {
          "internalType": "uint256[]",
          "name": "_txnDate",
          "type": "uint256[]"
        }
      ],
      "stateMutability": "view",
      "type": "function",
      "constant": true
    },
    {
      "inputs": [
        {
          "internalType": "address",
          "name": "_owner",
          "type": "address"
        }
      ],
      "name": "balanceOf",
      "outputs": [
        {
          "internalType": "uint256",
          "name": "",
          "type": "uint256"
        }
      ],
      "stateMutability": "view",
      "type": "function",
      "constant": true
    },
    {
      "inputs": [
        {
          "internalType": "uint256",
          "name": "_tokenId",
          "type": "uint256"
        }
      ],
      "name": "ownerOf",
      "outputs": [
        {
          "internalType": "address",
          "name": "_owner",
          "type": "address"
        }
      ],
      "stateMutability": "view",
      "type": "function",
      "constant": true
    },
    {
      "inputs": [
        {
          "internalType": "address",
          "name": "_to",
          "type": "address"
        },
        {
          "internalType": "uint256",
          "name": "_tokenId",
          "type": "uint256"
        }
      ],
      "name": "approve",
      "outputs": [],
      "stateMutability": "nonpayable",
      "type": "function"
    },
    {
      "inputs": [
        {
          "internalType": "uint256",
          "name": "tokenId",
          "type": "uint256"
        }
      ],
      "name": "getApproved",
      "outputs": [
        {
          "internalType": "address",
          "name": "operator",
          "type": "address"
        }
      ],
      "stateMutability": "view",
      "type": "function",
      "constant": true
    },
    {
      "inputs": [
        {
          "internalType": "address",
          "name": "operator",
          "type": "address"
        },
        {
          "internalType": "bool",
          "name": "_approved",
          "type": "bool"
        }
      ],
      "name": "setApprovalForAll",
      "outputs": [],
      "stateMutability": "nonpayable",
      "type": "function"
    },
    {
      "inputs": [
        {
          "internalType": "address",
          "name": "owner",
          "type": "address"
        },
        {
          "internalType": "address",
          "name": "operator",
          "type": "address"
        }
      ],
      "name": "isApprovedForAll",
      "outputs": [
        {
          "internalType": "bool",
          "name": "",
          "type": "bool"
        }
      ],
      "stateMutability": "view",
      "type": "function",
      "constant": true
    },
    {
      "inputs": [
        {
          "internalType": "uint256",
          "name": "tokenId",
          "type": "uint256"
        },
        {
          "internalType": "address",
          "name": "account",
          "type": "address"
        }
      ],
      "name": "isOwnerOf",
      "outputs": [
        {
          "internalType": "bool",
          "name": "",
          "type": "bool"
        }
      ],
      "stateMutability": "view",
      "type": "function",
      "constant": true
    },
    {
      "inputs": [
        {
          "internalType": "address",
          "name": "_from",
          "type": "address"
        },
        {
          "internalType": "address",
          "name": "_to",
          "type": "address"
        },
        {
          "internalType": "uint256",
          "name": "_tokenId",
          "type": "uint256"
        }
      ],
      "name": "transferFrom",
      "outputs": [],
      "stateMutability": "nonpayable",
      "type": "function"
    },
    {
      "inputs": [
        {
          "internalType": "address",
          "name": "from",
          "type": "address"
        },
        {
          "internalType": "address",
          "name": "to",
          "type": "address"
        },
        {
          "internalType": "uint256",
          "name": "tokenId",
          "type": "uint256"
        }
      ],
      "name": "safeTransferFrom",
      "outputs": [],
      "stateMutability": "nonpayable",
      "type": "function"
    },
    {
      "inputs": [
        {
          "internalType": "address",
          "name": "from",
          "type": "address"
        },
        {
          "internalType": "address",
          "name": "to",
          "type": "address"
        },
        {
          "internalType": "uint256",
          "name": "tokenId",
          "type": "uint256"
        },
        {
          "internalType": "bytes",
          "name": "data",
          "type": "bytes"
        }
      ],
      "name": "safeTransferFrom",
      "outputs": [],
      "stateMutability": "nonpayable",
      "type": "function"
    }
  ],
  "bytecode": "0x60806040523480156200001157600080fd5b50604051620045dd380380620045dd833981810160405281019062000037919062000200565b8160009081620000489190620004d0565b5080600190816200005a9190620004d0565b505050620005b7565b6000604051905090565b600080fd5b600080fd5b600080fd5b600080fd5b6000601f19601f8301169050919050565b7f4e487b7100000000000000000000000000000000000000000000000000000000600052604160045260246000fd5b620000cc8262000081565b810181811067ffffffffffffffff82111715620000ee57620000ed62000092565b5b80604052505050565b60006200010362000063565b9050620001118282620000c1565b919050565b600067ffffffffffffffff82111562000134576200013362000092565b5b6200013f8262000081565b9050602081019050919050565b60005b838110156200016c5780820151818401526020810190506200014f565b838111156200017c576000848401525b50505050565b600062000199620001938462000116565b620000f7565b905082815260208101848484011115620001b857620001b76200007c565b5b620001c58482856200014c565b509392505050565b600082601f830112620001e557620001e462000077565b5b8151620001f784826020860162000182565b91505092915050565b600080604083850312156200021a57620002196200006d565b5b600083015167ffffffffffffffff8111156200023b576200023a62000072565b5b6200024985828601620001cd565b925050602083015167ffffffffffffffff8111156200026d576200026c62000072565b5b6200027b85828601620001cd565b9150509250929050565b600081519050919050565b7f4e487b7100000000000000000000000000000000000000000000000000000000600052602260045260246000fd5b60006002820490506001821680620002d857607f821691505b602082108103620002ee57620002ed62000290565b5b50919050565b60008190508160005260206000209050919050565b60006020601f8301049050919050565b600082821b905092915050565b600060088302620003587fffffffffffffffffffffffffffffffffffffffffffffffffffffffffffffffff8262000319565b62000364868362000319565b95508019841693508086168417925050509392505050565b6000819050919050565b6000819050919050565b6000620003b1620003ab620003a5846200037c565b62000386565b6200037c565b9050919050565b6000819050919050565b620003cd8362000390565b620003e5620003dc82620003b8565b84845462000326565b825550505050565b600090565b620003fc620003ed565b62000409818484620003c2565b505050565b5b81811015620004315762000425600082620003f2565b6001810190506200040f565b5050565b601f82111562000480576200044a81620002f4565b620004558462000309565b8101602085101562000465578190505b6200047d620004748562000309565b8301826200040e565b50505b505050565b600082821c905092915050565b6000620004a56000198460080262000485565b1980831691505092915050565b6000620004c0838362000492565b9150826002028217905092915050565b620004db8262000285565b67ffffffffffffffff811115620004f757620004f662000092565b5b620005038254620002bf565b6200051082828562000435565b600060209050601f83116001811462000548576000841562000533578287015190505b6200053f8582620004b2565b865550620005af565b601f1984166200055886620002f4565b60005b8281101562000582578489015182556001820191506020850194506020810190506200055b565b86831015620005a257848901516200059e601f89168262000492565b8355505b6001600288020188555050505b505050505050565b61401680620005c76000396000f3fe60806040526004361061012a5760003560e01c806370a08231116100ab578063d2c088021161006f578063d2c0880214610401578063e1925e151461042c578063e49a3d3b1461046d578063e57a104a14610496578063e985e9c5146104dc578063fc7a900b146105195761012a565b806370a08231146102ef5780639ac016e21461032c578063a22cb46514610369578063b88d4fde14610392578063ce971a10146103bb5761012a565b806323b872dd116100f257806323b872dd146102195780632986c0e51461024257806342842e0e1461026d5780636352211e1461029657806364262dcc146102d35761012a565b8063063fc9661461012f578063081812fc1461015d578063095ea7b31461019a57806315070401146101c357806317d7de7c146101ee575b600080fd5b34801561013b57600080fd5b50610144610535565b6040516101549493929190612e47565b60405180910390f35b34801561016957600080fd5b50610184600480360381019061017f9190612ee8565b610cd9565b6040516101919190612f24565b60405180910390f35b3480156101a657600080fd5b506101c160048036038101906101bc9190612f6b565b610d28565b005b3480156101cf57600080fd5b506101d8610dec565b6040516101e59190613044565b60405180910390f35b3480156101fa57600080fd5b50610203610e7e565b6040516102109190613044565b60405180910390f35b34801561022557600080fd5b50610240600480360381019061023b9190613066565b610f10565b005b34801561024e57600080fd5b50610257610f7f565b60405161026491906130c8565b60405180910390f35b34801561027957600080fd5b50610294600480360381019061028f9190613066565b610f85565b005b3480156102a257600080fd5b506102bd60048036038101906102b89190612ee8565b610f8a565b6040516102ca9190612f24565b60405180910390f35b6102ed60048036038101906102e891906130e3565b610fc7565b005b3480156102fb57600080fd5b5061031660048036038101906103119190613123565b6110c0565b60405161032391906130c8565b60405180910390f35b34801561033857600080fd5b50610353600480360381019061034e9190613150565b611109565b60405161036091906131ab565b60405180910390f35b34801561037557600080fd5b50610390600480360381019061038b91906131f2565b6111b3565b005b34801561039e57600080fd5b506103b960048036038101906103b49190613367565b6112e8565b005b3480156103c757600080fd5b506103e260048036038101906103dd9190612ee8565b6112ee565b6040516103f89a9998979695949392919061340b565b60405180910390f35b34801561040d57600080fd5b5061041661172a565b60405161042391906134ca565b60405180910390f35b34801561043857600080fd5b50610453600480360381019061044e9190612ee8565b6118e3565b6040516104649594939291906134ec565b60405180910390f35b34801561047957600080fd5b50610494600480360381019061048f9190613603565b611d21565b005b3480156104a257600080fd5b506104bd60048036038101906104b89190612ee8565b6120d4565b6040516104d39a9998979695949392919061371c565b60405180910390f35b3480156104e857600080fd5b5061050360048036038101906104fe91906137db565b612420565b60405161051091906131ab565b60405180910390f35b610533600480360381019061052e9190612ee8565b6124b4565b005b60608060608060006008540361067a57600067ffffffffffffffff8111156105605761055f61323c565b5b60405190808252806020026020018201604052801561058e5781602001602082028036833780820191505090505b50600067ffffffffffffffff8111156105aa576105a961323c565b5b6040519080825280602002602001820160405280156105d85781602001602082028036833780820191505090505b50600067ffffffffffffffff8111156105f4576105f361323c565b5b6040519080825280602002602001820160405280156106225781602001602082028036833780820191505090505b50600067ffffffffffffffff81111561063e5761063d61323c565b5b60405190808252806020026020018201604052801561066c5781602001602082028036833780820191505090505b509350935093509350610cd3565b600060085467ffffffffffffffff8111156106985761069761323c565b5b6040519080825280602002602001820160405280156106c65781602001602082028036833780820191505090505b509050600060085467ffffffffffffffff8111156106e7576106e661323c565b5b6040519080825280602002602001820160405280156107155781602001602082028036833780820191505090505b509050600060085467ffffffffffffffff8111156107365761073561323c565b5b6040519080825280602002602001820160405280156107645781602001602082028036833780820191505090505b509050600060085467ffffffffffffffff8111156107855761078461323c565b5b6040519080825280602002602001820160405280156107b35781602001602082028036833780820191505090505b509050600060078054905090506000805b82811015610cbf576000600782815481106107e2576107e161381b565b5b90600052602060002090600a0201604051806101400160405290816000820154815260200160018201805461081690613879565b80601f016020809104026020016040519081016040528092919081815260200182805461084290613879565b801561088f5780601f106108645761010080835404028352916020019161088f565b820191906000526020600020905b81548152906001019060200180831161087257829003601f168201915b505050505081526020016002820180546108a890613879565b80601f01602080910402602001604051908101604052809291908181526020018280546108d490613879565b80156109215780601f106108f657610100808354040283529160200191610921565b820191906000526020600020905b81548152906001019060200180831161090457829003601f168201915b505050505081526020016003820154815260200160048201805461094490613879565b80601f016020809104026020016040519081016040528092919081815260200182805461097090613879565b80156109bd5780601f10610992576101008083540402835291602001916109bd565b820191906000526020600020905b8154815290600101906020018083116109a057829003601f168201915b505050505081526020016005820180546109d690613879565b80601f0160208091040260200160405190810160405280929190818152602001828054610a0290613879565b8015610a4f5780601f10610a2457610100808354040283529160200191610a4f565b820191906000526020600020905b815481529060010190602001808311610a3257829003601f168201915b505050505081526020016006820160009054906101000a900473ffffffffffffffffffffffffffffffffffffffff1673ffffffffffffffffffffffffffffffffffffffff1673ffffffffffffffffffffffffffffffffffffffff1681526020016007820160009054906101000a900473ffffffffffffffffffffffffffffffffffffffff1673ffffffffffffffffffffffffffffffffffffffff1673ffffffffffffffffffffffffffffffffffffffff16815260200160088201548152602001600982018054610b1e90613879565b80601f0160208091040260200160405190810160405280929190818152602001828054610b4a90613879565b8015610b975780601f10610b6c57610100808354040283529160200191610b97565b820191906000526020600020905b815481529060010190602001808311610b7a57829003601f168201915b5050505050815250509050600181610100015103610cab578060000151888481518110610bc757610bc661381b565b5b6020026020010181815250508060c00151878481518110610beb57610bea61381b565b5b602002602001019073ffffffffffffffffffffffffffffffffffffffff16908173ffffffffffffffffffffffffffffffffffffffff16815250508060e00151868481518110610c3d57610c3c61381b565b5b602002602001019073ffffffffffffffffffffffffffffffffffffffff16908173ffffffffffffffffffffffffffffffffffffffff1681525050806101000151858481518110610c9057610c8f61381b565b5b6020026020010181815250508280610ca7906138d9565b9350505b508080610cb7906138d9565b9150506107c4565b508585858599509950995099505050505050505b90919293565b6000610ce482612902565b610ced57600080fd5b6004600083815260200190815260200160002060009054906101000a900473ffffffffffffffffffffffffffffffffffffffff169050919050565b610d328133611109565b610d3b57600080fd5b816004600083815260200190815260200160002060006101000a81548173ffffffffffffffffffffffffffffffffffffffff021916908373ffffffffffffffffffffffffffffffffffffffff160217905550808273ffffffffffffffffffffffffffffffffffffffff163373ffffffffffffffffffffffffffffffffffffffff167f8c5be1e5ebec7d5bd14f71427d1e84f3dd0314c0f7b2291e5b200ac8c7c3b92560405160405180910390a45050565b606060018054610dfb90613879565b80601f0160208091040260200160405190810160405280929190818152602001828054610e2790613879565b8015610e745780601f10610e4957610100808354040283529160200191610e74565b820191906000526020600020905b815481529060010190602001808311610e5757829003601f168201915b5050505050905090565b606060008054610e8d90613879565b80601f0160208091040260200160405190810160405280929190818152602001828054610eb990613879565b8015610f065780601f10610edb57610100808354040283529160200191610f06565b820191906000526020600020905b815481529060010190602001808311610ee957829003601f168201915b5050505050905090565b600073ffffffffffffffffffffffffffffffffffffffff168273ffffffffffffffffffffffffffffffffffffffff1603610f4957600080fd5b610f538184611109565b610f5c57600080fd5b610f668282612974565b610f6f57600080fd5b610f7a8383836129e0565b505050565b60095481565b505050565b60006002600083815260200190815260200160002060009054906101000a900473ffffffffffffffffffffffffffffffffffffffff169050919050565b600073ffffffffffffffffffffffffffffffffffffffff163373ffffffffffffffffffffffffffffffffffffffff160361100057600080fd5b61100a8233611109565b61101357600080fd5b6001600783815481106110295761102861381b565b5b90600052602060002090600a02016008018190555080600783815481106110535761105261381b565b5b90600052602060002090600a0201600301819055506008600081548092919061107b906138d9565b91905055507f8916ae292317d6f324a5ed02fea84bf6881d4065b6d575a8980442469b882b7a826001836040516110b493929190613966565b60405180910390a15050565b6000600360008373ffffffffffffffffffffffffffffffffffffffff1673ffffffffffffffffffffffffffffffffffffffff168152602001908152602001600020549050919050565b6000806002600085815260200190815260200160002060009054906101000a900473ffffffffffffffffffffffffffffffffffffffff169050600073ffffffffffffffffffffffffffffffffffffffff168173ffffffffffffffffffffffffffffffffffffffff160361117b57600080fd5b8273ffffffffffffffffffffffffffffffffffffffff168173ffffffffffffffffffffffffffffffffffffffff161491505092915050565b3373ffffffffffffffffffffffffffffffffffffffff168273ffffffffffffffffffffffffffffffffffffffff16036111eb57600080fd5b80600560003373ffffffffffffffffffffffffffffffffffffffff1673ffffffffffffffffffffffffffffffffffffffff16815260200190815260200160002060008473ffffffffffffffffffffffffffffffffffffffff1673ffffffffffffffffffffffffffffffffffffffff16815260200190815260200160002060006101000a81548160ff0219169083151502179055508173ffffffffffffffffffffffffffffffffffffffff163373ffffffffffffffffffffffffffffffffffffffff167f17307eab39ab6107e8899845ad3d59bd9653f200f220920489ca2b5937696c31836040516112dc91906131ab565b60405180910390a35050565b50505050565b60006060806000806060806000806060600060078c815481106113145761131361381b565b5b90600052602060002090600a0201604051806101400160405290816000820154815260200160018201805461134890613879565b80601f016020809104026020016040519081016040528092919081815260200182805461137490613879565b80156113c15780601f10611396576101008083540402835291602001916113c1565b820191906000526020600020905b8154815290600101906020018083116113a457829003601f168201915b505050505081526020016002820180546113da90613879565b80601f016020809104026020016040519081016040528092919081815260200182805461140690613879565b80156114535780601f1061142857610100808354040283529160200191611453565b820191906000526020600020905b81548152906001019060200180831161143657829003601f168201915b505050505081526020016003820154815260200160048201805461147690613879565b80601f01602080910402602001604051908101604052809291908181526020018280546114a290613879565b80156114ef5780601f106114c4576101008083540402835291602001916114ef565b820191906000526020600020905b8154815290600101906020018083116114d257829003601f168201915b5050505050815260200160058201805461150890613879565b80601f016020809104026020016040519081016040528092919081815260200182805461153490613879565b80156115815780601f1061155657610100808354040283529160200191611581565b820191906000526020600020905b81548152906001019060200180831161156457829003601f168201915b505050505081526020016006820160009054906101000a900473ffffffffffffffffffffffffffffffffffffffff1673ffffffffffffffffffffffffffffffffffffffff1673ffffffffffffffffffffffffffffffffffffffff1681526020016007820160009054906101000a900473ffffffffffffffffffffffffffffffffffffffff1673ffffffffffffffffffffffffffffffffffffffff1673ffffffffffffffffffffffffffffffffffffffff1681526020016008820154815260200160098201805461165090613879565b80601f016020809104026020016040519081016040528092919081815260200182805461167c90613879565b80156116c95780601f1061169e576101008083540402835291602001916116c9565b820191906000526020600020905b8154815290600101906020018083116116ac57829003601f168201915b5050505050815250509050806000015181602001518260400151836060015184610100015185608001518660a001518760c001518860e001518961012001519a509a509a509a509a509a509a509a509a509a50509193959799509193959799565b6060600073ffffffffffffffffffffffffffffffffffffffff163373ffffffffffffffffffffffffffffffffffffffff160361176557600080fd5b6000611770336110c0565b9050600081036117cc57600067ffffffffffffffff8111156117955761179461323c565b5b6040519080825280602002602001820160405280156117c35781602001602082028036833780820191505090505b509150506118e0565b60008167ffffffffffffffff8111156117e8576117e761323c565b5b6040519080825280602002602001820160405280156118165781602001602082028036833780820191505090505b509050600080600780549050905060005b818110156118d7573373ffffffffffffffffffffffffffffffffffffffff166002600083815260200190815260200160002060009054906101000a900473ffffffffffffffffffffffffffffffffffffffff1673ffffffffffffffffffffffffffffffffffffffff16036118c457808484815181106118a9576118a861381b565b5b60200260200101818152505082806118c0906138d9565b9350505b80806118cf906138d9565b915050611827565b50829450505050505b90565b6060806060806060600060066000888152602001908152602001600020805480602002602001604051908101604052809291908181526020016000905b82821015611a2657838290600052602060002090600602016040518060c001604052908160008201548152602001600182015481526020016002820160009054906101000a900473ffffffffffffffffffffffffffffffffffffffff1673ffffffffffffffffffffffffffffffffffffffff1673ffffffffffffffffffffffffffffffffffffffff1681526020016003820160009054906101000a900473ffffffffffffffffffffffffffffffffffffffff1673ffffffffffffffffffffffffffffffffffffffff1673ffffffffffffffffffffffffffffffffffffffff1681526020016004820154815260200160058201548152505081526020019060010190611920565b50505050905060008151905060008167ffffffffffffffff811115611a4e57611a4d61323c565b5b604051908082528060200260200182016040528015611a7c5781602001602082028036833780820191505090505b50905060008267ffffffffffffffff811115611a9b57611a9a61323c565b5b604051908082528060200260200182016040528015611ac95781602001602082028036833780820191505090505b50905060008367ffffffffffffffff811115611ae857611ae761323c565b5b604051908082528060200260200182016040528015611b165781602001602082028036833780820191505090505b50905060008467ffffffffffffffff811115611b3557611b3461323c565b5b604051908082528060200260200182016040528015611b635781602001602082028036833780820191505090505b50905060008567ffffffffffffffff811115611b8257611b8161323c565b5b604051908082528060200260200182016040528015611bb05781602001602082028036833780820191505090505b50905060005b86811015611d01576000888281518110611bd357611bd261381b565b5b602002602001015190508060000151878381518110611bf557611bf461381b565b5b6020026020010181815250508060200151868381518110611c1957611c1861381b565b5b6020026020010181815250508060400151858381518110611c3d57611c3c61381b565b5b602002602001019073ffffffffffffffffffffffffffffffffffffffff16908173ffffffffffffffffffffffffffffffffffffffff16815250508060600151848381518110611c8f57611c8e61381b565b5b602002602001019073ffffffffffffffffffffffffffffffffffffffff16908173ffffffffffffffffffffffffffffffffffffffff16815250508060800151838381518110611ce157611ce061381b565b5b602002602001018181525050508080611cf9906138d9565b915050611bb6565b5084848484849b509b509b509b509b505050505050505091939590929450565b6000865111611d65576040517f08c379a0000000000000000000000000000000000000000000000000000000008152600401611d5c906139e9565b60405180910390fd5b6000845111611da9576040517f08c379a0000000000000000000000000000000000000000000000000000000008152600401611da090613a55565b60405180910390fd5b6000855111611ded576040517f08c379a0000000000000000000000000000000000000000000000000000000008152600401611de490613ac1565b60405180910390fd5b60008210611e30576040517f08c379a0000000000000000000000000000000000000000000000000000000008152600401611e2790613b2d565b60405180910390fd5b6000815111611e74576040517f08c379a0000000000000000000000000000000000000000000000000000000008152600401611e6b90613b99565b60405180910390fd5b600060405180610140016040528060095481526020018881526020018781526020018481526020018681526020018581526020013373ffffffffffffffffffffffffffffffffffffffff1681526020013373ffffffffffffffffffffffffffffffffffffffff1681526020016001815260200183815250905060078190806001815401808255809150506001900390600052602060002090600a0201600090919091909150600082015181600001556020820151816001019081611f389190613d5b565b506040820151816002019081611f4e9190613d5b565b50606082015181600301556080820151816004019081611f6e9190613d5b565b5060a0820151816005019081611f849190613d5b565b5060c08201518160060160006101000a81548173ffffffffffffffffffffffffffffffffffffffff021916908373ffffffffffffffffffffffffffffffffffffffff16021790555060e08201518160070160006101000a81548173ffffffffffffffffffffffffffffffffffffffff021916908373ffffffffffffffffffffffffffffffffffffffff16021790555061010082015181600801556101208201518160090190816120349190613d5b565b5050506000600160078054905061204b9190613e2d565b90506120573382612b3c565b7ff376cc32e072d5cce6d2829c66b30d30fa0bd8fccda5e8fc27dab25430505715818988888833336040516120929796959493929190613e61565b60405180910390a1600960008154809291906120ad906138d9565b9190505550600860008154809291906120c5906138d9565b91905055505050505050505050565b600781815481106120e457600080fd5b90600052602060002090600a020160009150905080600001549080600101805461210d90613879565b80601f016020809104026020016040519081016040528092919081815260200182805461213990613879565b80156121865780601f1061215b57610100808354040283529160200191612186565b820191906000526020600020905b81548152906001019060200180831161216957829003601f168201915b50505050509080600201805461219b90613879565b80601f01602080910402602001604051908101604052809291908181526020018280546121c790613879565b80156122145780601f106121e957610100808354040283529160200191612214565b820191906000526020600020905b8154815290600101906020018083116121f757829003601f168201915b50505050509080600301549080600401805461222f90613879565b80601f016020809104026020016040519081016040528092919081815260200182805461225b90613879565b80156122a85780601f1061227d576101008083540402835291602001916122a8565b820191906000526020600020905b81548152906001019060200180831161228b57829003601f168201915b5050505050908060050180546122bd90613879565b80601f01602080910402602001604051908101604052809291908181526020018280546122e990613879565b80156123365780601f1061230b57610100808354040283529160200191612336565b820191906000526020600020905b81548152906001019060200180831161231957829003601f168201915b5050505050908060060160009054906101000a900473ffffffffffffffffffffffffffffffffffffffff16908060070160009054906101000a900473ffffffffffffffffffffffffffffffffffffffff169080600801549080600901805461239d90613879565b80601f01602080910402602001604051908101604052809291908181526020018280546123c990613879565b80156124165780601f106123eb57610100808354040283529160200191612416565b820191906000526020600020905b8154815290600101906020018083116123f957829003601f168201915b505050505090508a565b6000600560008473ffffffffffffffffffffffffffffffffffffffff1673ffffffffffffffffffffffffffffffffffffffff16815260200190815260200160002060008373ffffffffffffffffffffffffffffffffffffffff1673ffffffffffffffffffffffffffffffffffffffff16815260200190815260200160002060009054906101000a900460ff16905092915050565b60008060008060008060006124c8886112ee565b5098509850985050975097505096509650600073ffffffffffffffffffffffffffffffffffffffff168173ffffffffffffffffffffffffffffffffffffffff160361251257600080fd5b600073ffffffffffffffffffffffffffffffffffffffff163373ffffffffffffffffffffffffffffffffffffffff160361254b57600080fd5b8073ffffffffffffffffffffffffffffffffffffffff163373ffffffffffffffffffffffffffffffffffffffff160361258357600080fd5b8434101561259057600080fd5b600073ffffffffffffffffffffffffffffffffffffffff16600789815481106125bc576125bb61381b565b5b90600052602060002090600a020160070160009054906101000a900473ffffffffffffffffffffffffffffffffffffffff1673ffffffffffffffffffffffffffffffffffffffff160361260e57600080fd5b61261981338a6129e0565b84341115612674573373ffffffffffffffffffffffffffffffffffffffff166108fc86346126479190613e2d565b9081150290604051600060405180830381858888f19350505050158015612672573d6000803e3d6000fd5b505b8073ffffffffffffffffffffffffffffffffffffffff166108fc869081150290604051600060405180830381858888f193505050501580156126ba573d6000803e3d6000fd5b5033600789815481106126d0576126cf61381b565b5b90600052602060002090600a020160070160006101000a81548173ffffffffffffffffffffffffffffffffffffffff021916908373ffffffffffffffffffffffffffffffffffffffff1602179055506000600789815481106127355761273461381b565b5b90600052602060002090600a02016008018190555060006040518060c001604052808981526020018781526020018373ffffffffffffffffffffffffffffffffffffffff1681526020013373ffffffffffffffffffffffffffffffffffffffff16815260200142815260200186815250905060066000898152602001908152602001600020819080600181540180825580915050600190039060005260206000209060060201600090919091909150600082015181600001556020820151816001015560408201518160020160006101000a81548173ffffffffffffffffffffffffffffffffffffffff021916908373ffffffffffffffffffffffffffffffffffffffff16021790555060608201518160030160006101000a81548173ffffffffffffffffffffffffffffffffffffffff021916908373ffffffffffffffffffffffffffffffffffffffff1602179055506080820151816004015560a082015181600501555050600860008154809291906128af90613ee5565b91905055507f33157a2d6e087f53ff6fc0edba4550aa6df53452ece435476cd3ab334ad50c34898886898787336040516128ef9796959493929190613f63565b60405180910390a1505050505050505050565b6000806002600084815260200190815260200160002060009054906101000a900473ffffffffffffffffffffffffffffffffffffffff169050600073ffffffffffffffffffffffffffffffffffffffff168173ffffffffffffffffffffffffffffffffffffffff161415915050919050565b60008273ffffffffffffffffffffffffffffffffffffffff166004600084815260200190815260200160002060009054906101000a900473ffffffffffffffffffffffffffffffffffffffff1673ffffffffffffffffffffffffffffffffffffffff1614905092915050565b600360008373ffffffffffffffffffffffffffffffffffffffff1673ffffffffffffffffffffffffffffffffffffffff1681526020019081526020016000206000815480929190612a30906138d9565b9190505550600360008473ffffffffffffffffffffffffffffffffffffffff1673ffffffffffffffffffffffffffffffffffffffff1681526020019081526020016000206000815480929190612a8590613ee5565b9190505550816002600083815260200190815260200160002060006101000a81548173ffffffffffffffffffffffffffffffffffffffff021916908373ffffffffffffffffffffffffffffffffffffffff160217905550808273ffffffffffffffffffffffffffffffffffffffff168473ffffffffffffffffffffffffffffffffffffffff167fddf252ad1be2c89b69c2b068fc378daa952ba7f163c4a11628f55a4df523b3ef60405160405180910390a4505050565b600073ffffffffffffffffffffffffffffffffffffffff168273ffffffffffffffffffffffffffffffffffffffff1603612b7557600080fd5b612b7e81612902565b15612b8857600080fd5b816002600083815260200190815260200160002060006101000a81548173ffffffffffffffffffffffffffffffffffffffff021916908373ffffffffffffffffffffffffffffffffffffffff160217905550600360008373ffffffffffffffffffffffffffffffffffffffff1673ffffffffffffffffffffffffffffffffffffffff1681526020019081526020016000206000815480929190612c2a906138d9565b9190505550808273ffffffffffffffffffffffffffffffffffffffff16600073ffffffffffffffffffffffffffffffffffffffff167fddf252ad1be2c89b69c2b068fc378daa952ba7f163c4a11628f55a4df523b3ef60405160405180910390a45050565b600081519050919050565b600082825260208201905092915050565b6000819050602082019050919050565b6000819050919050565b612cce81612cbb565b82525050565b6000612ce08383612cc5565b60208301905092915050565b6000602082019050919050565b6000612d0482612c8f565b612d0e8185612c9a565b9350612d1983612cab565b8060005b83811015612d4a578151612d318882612cd4565b9750612d3c83612cec565b925050600181019050612d1d565b5085935050505092915050565b600081519050919050565b600082825260208201905092915050565b6000819050602082019050919050565b600073ffffffffffffffffffffffffffffffffffffffff82169050919050565b6000612dae82612d83565b9050919050565b612dbe81612da3565b82525050565b6000612dd08383612db5565b60208301905092915050565b6000602082019050919050565b6000612df482612d57565b612dfe8185612d62565b9350612e0983612d73565b8060005b83811015612e3a578151612e218882612dc4565b9750612e2c83612ddc565b925050600181019050612e0d565b5085935050505092915050565b60006080820190508181036000830152612e618187612cf9565b90508181036020830152612e758186612de9565b90508181036040830152612e898185612de9565b90508181036060830152612e9d8184612cf9565b905095945050505050565b6000604051905090565b600080fd5b600080fd5b612ec581612cbb565b8114612ed057600080fd5b50565b600081359050612ee281612ebc565b92915050565b600060208284031215612efe57612efd612eb2565b5b6000612f0c84828501612ed3565b91505092915050565b612f1e81612da3565b82525050565b6000602082019050612f396000830184612f15565b92915050565b612f4881612da3565b8114612f5357600080fd5b50565b600081359050612f6581612f3f565b92915050565b60008060408385031215612f8257612f81612eb2565b5b6000612f9085828601612f56565b9250506020612fa185828601612ed3565b9150509250929050565b600081519050919050565b600082825260208201905092915050565b60005b83811015612fe5578082015181840152602081019050612fca565b83811115612ff4576000848401525b50505050565b6000601f19601f8301169050919050565b600061301682612fab565b6130208185612fb6565b9350613030818560208601612fc7565b61303981612ffa565b840191505092915050565b6000602082019050818103600083015261305e818461300b565b905092915050565b60008060006060848603121561307f5761307e612eb2565b5b600061308d86828701612f56565b935050602061309e86828701612f56565b92505060406130af86828701612ed3565b9150509250925092565b6130c281612cbb565b82525050565b60006020820190506130dd60008301846130b9565b92915050565b600080604083850312156130fa576130f9612eb2565b5b600061310885828601612ed3565b925050602061311985828601612ed3565b9150509250929050565b60006020828403121561313957613138612eb2565b5b600061314784828501612f56565b91505092915050565b6000806040838503121561316757613166612eb2565b5b600061317585828601612ed3565b925050602061318685828601612f56565b9150509250929050565b60008115159050919050565b6131a581613190565b82525050565b60006020820190506131c0600083018461319c565b92915050565b6131cf81613190565b81146131da57600080fd5b50565b6000813590506131ec816131c6565b92915050565b6000806040838503121561320957613208612eb2565b5b600061321785828601612f56565b9250506020613228858286016131dd565b9150509250929050565b600080fd5b600080fd5b7f4e487b7100000000000000000000000000000000000000000000000000000000600052604160045260246000fd5b61327482612ffa565b810181811067ffffffffffffffff821117156132935761329261323c565b5b80604052505050565b60006132a6612ea8565b90506132b2828261326b565b919050565b600067ffffffffffffffff8211156132d2576132d161323c565b5b6132db82612ffa565b9050602081019050919050565b82818337600083830152505050565b600061330a613305846132b7565b61329c565b90508281526020810184848401111561332657613325613237565b5b6133318482856132e8565b509392505050565b600082601f83011261334e5761334d613232565b5b813561335e8482602086016132f7565b91505092915050565b6000806000806080858703121561338157613380612eb2565b5b600061338f87828801612f56565b94505060206133a087828801612f56565b93505060406133b187828801612ed3565b925050606085013567ffffffffffffffff8111156133d2576133d1612eb7565b5b6133de87828801613339565b91505092959194509250565b60006133f582612d83565b9050919050565b613405816133ea565b82525050565b600061014082019050613421600083018d6130b9565b8181036020830152613433818c61300b565b90508181036040830152613447818b61300b565b9050613456606083018a6130b9565b61346360808301896130b9565b81810360a0830152613475818861300b565b905081810360c0830152613489818761300b565b905061349860e0830186612f15565b6134a66101008301856133fc565b8181036101208301526134b9818461300b565b90509b9a5050505050505050505050565b600060208201905081810360008301526134e48184612cf9565b905092915050565b600060a08201905081810360008301526135068188612cf9565b9050818103602083015261351a8187612cf9565b9050818103604083015261352e8186612de9565b905081810360608301526135428185612de9565b905081810360808301526135568184612cf9565b90509695505050505050565b600067ffffffffffffffff82111561357d5761357c61323c565b5b61358682612ffa565b9050602081019050919050565b60006135a66135a184613562565b61329c565b9050828152602081018484840111156135c2576135c1613237565b5b6135cd8482856132e8565b509392505050565b600082601f8301126135ea576135e9613232565b5b81356135fa848260208601613593565b91505092915050565b60008060008060008060c087890312156136205761361f612eb2565b5b600087013567ffffffffffffffff81111561363e5761363d612eb7565b5b61364a89828a016135d5565b965050602087013567ffffffffffffffff81111561366b5761366a612eb7565b5b61367789828a016135d5565b955050604087013567ffffffffffffffff81111561369857613697612eb7565b5b6136a489828a016135d5565b945050606087013567ffffffffffffffff8111156136c5576136c4612eb7565b5b6136d189828a016135d5565b93505060806136e289828a01612ed3565b92505060a087013567ffffffffffffffff81111561370357613702612eb7565b5b61370f89828a016135d5565b9150509295509295509295565b600061014082019050613732600083018d6130b9565b8181036020830152613744818c61300b565b90508181036040830152613758818b61300b565b9050613767606083018a6130b9565b8181036080830152613779818961300b565b905081810360a083015261378d818861300b565b905061379c60c08301876133fc565b6137a960e08301866133fc565b6137b76101008301856130b9565b8181036101208301526137ca818461300b565b90509b9a5050505050505050505050565b600080604083850312156137f2576137f1612eb2565b5b600061380085828601612f56565b925050602061381185828601612f56565b9150509250929050565b7f4e487b7100000000000000000000000000000000000000000000000000000000600052603260045260246000fd5b7f4e487b7100000000000000000000000000000000000000000000000000000000600052602260045260246000fd5b6000600282049050600182168061389157607f821691505b6020821081036138a4576138a361384a565b5b50919050565b7f4e487b7100000000000000000000000000000000000000000000000000000000600052601160045260246000fd5b60006138e482612cbb565b91507fffffffffffffffffffffffffffffffffffffffffffffffffffffffffffffffff8203613916576139156138aa565b5b600182019050919050565b6000819050919050565b6000819050919050565b600061395061394b61394684613921565b61392b565b612cbb565b9050919050565b61396081613935565b82525050565b600060608201905061397b60008301866130b9565b6139886020830185613957565b61399560408301846130b9565b949350505050565b7f546865207469746c652063616e6e6f7420626520656d70747900000000000000600082015250565b60006139d3601983612fb6565b91506139de8261399d565b602082019050919050565b60006020820190508181036000830152613a02816139c6565b9050919050565b7f54686520646174652063616e6e6f7420626520656d7074790000000000000000600082015250565b6000613a3f601883612fb6565b9150613a4a82613a09565b602082019050919050565b60006020820190508181036000830152613a6e81613a32565b9050919050565b7f546865206465736372697074696f6e2063616e6e6f7420626520656d70747900600082015250565b6000613aab601f83612fb6565b9150613ab682613a75565b602082019050919050565b60006020820190508181036000830152613ada81613a9e565b9050919050565b7f5468652070726963652063616e6e6f7420626520656d70747900000000000000600082015250565b6000613b17601983612fb6565b9150613b2282613ae1565b602082019050919050565b60006020820190508181036000830152613b4681613b0a565b9050919050565b7f54686520696d6167652063616e6e6f7420626520656d70747900000000000000600082015250565b6000613b83601983612fb6565b9150613b8e82613b4d565b602082019050919050565b60006020820190508181036000830152613bb281613b76565b9050919050565b60008190508160005260206000209050919050565b60006020601f8301049050919050565b600082821b905092915050565b600060088302613c1b7fffffffffffffffffffffffffffffffffffffffffffffffffffffffffffffffff82613bde565b613c258683613bde565b95508019841693508086168417925050509392505050565b6000613c58613c53613c4e84612cbb565b61392b565b612cbb565b9050919050565b6000819050919050565b613c7283613c3d565b613c86613c7e82613c5f565b848454613beb565b825550505050565b600090565b613c9b613c8e565b613ca6818484613c69565b505050565b5b81811015613cca57613cbf600082613c93565b600181019050613cac565b5050565b601f821115613d0f57613ce081613bb9565b613ce984613bce565b81016020851015613cf8578190505b613d0c613d0485613bce565b830182613cab565b50505b505050565b600082821c905092915050565b6000613d3260001984600802613d14565b1980831691505092915050565b6000613d4b8383613d21565b9150826002028217905092915050565b613d6482612fab565b67ffffffffffffffff811115613d7d57613d7c61323c565b5b613d878254613879565b613d92828285613cce565b600060209050601f831160018114613dc55760008415613db3578287015190505b613dbd8582613d3f565b865550613e25565b601f198416613dd386613bb9565b60005b82811015613dfb57848901518255600182019150602085019450602081019050613dd6565b86831015613e185784890151613e14601f891682613d21565b8355505b6001600288020188555050505b505050505050565b6000613e3882612cbb565b9150613e4383612cbb565b925082821015613e5657613e556138aa565b5b828203905092915050565b600060e082019050613e76600083018a6130b9565b8181036020830152613e88818961300b565b90508181036040830152613e9c818861300b565b90508181036060830152613eb0818761300b565b9050613ebf60808301866130b9565b613ecc60a0830185612f15565b613ed960c0830184612f15565b98975050505050505050565b6000613ef082612cbb565b915060008203613f0357613f026138aa565b5b600182039050919050565b6000613f29613f24613f1f84612d83565b61392b565b612d83565b9050919050565b6000613f3b82613f0e565b9050919050565b6000613f4d82613f30565b9050919050565b613f5d81613f42565b82525050565b600060e082019050613f78600083018a6130b9565b8181036020830152613f8a818961300b565b90508181036040830152613f9e818861300b565b9050613fad60608301876130b9565b613fba6080830186612f15565b613fc760a0830185613f54565b613fd460c0830184612f15565b9897505050505050505056fea26469706673582212200ea4b199a3d8c5c7ed109b1e12576e47f2896dd871299a3414bd832152f2b4a764736f6c634300080f0033",
  "immutableReferences": {},
  "source": "// SPDX-License-Identifier: GPL-3.0\r\npragma solidity 0.8.15;\r\n\r\ninterface ERC721 {\r\n    function balanceOf(address owner) external view returns (uint256 balance);\r\n\r\n    function ownerOf(uint256 tokenId) external view returns (address owner);\r\n\r\n    function approve(address to, uint256 tokenId) external;\r\n\r\n    function getApproved(uint256 tokenId) external view returns (address operator);\r\n\r\n    function setApprovalForAll(address operator, bool _approved) external;\r\n\r\n    function isApprovedForAll(address owner, address operator) external view returns (bool);\r\n\r\n    function transferFrom(address from, address to, uint256 tokenId) external;\r\n\r\n    function safeTransferFrom(address from, address to, uint256 tokenId) external;\r\n\r\n    function safeTransferFrom(address from, address to, uint256 tokenId, bytes memory data) external;\r\n\r\n    event Transfer(address indexed from, address indexed to, uint256 indexed tokenId);\r\n\r\n    event Approval(address indexed owner, address indexed approved, uint256 indexed tokenId);\r\n\r\n    event ApprovalForAll(address indexed owner, address indexed operator, bool approved);\r\n}\r\n\r\ncontract DigitalArt is ERC721 {\r\n    string private _name;\r\n    string private _symbol;\r\n\r\n    mapping(uint256 => address) private _tokenOwner;\r\n    mapping(address => uint256) private _ownedTokensCount;\r\n    mapping(uint256 => address) private _tokenApprovals;\r\n    mapping(address => mapping(address => bool)) private _operatorApprovals;\r\n    mapping(uint256 => ArtTxn[]) private artTxns;\r\n\r\n    Art[] public arts;\r\n    uint256 private pendingArtCount;\r\n    uint public index;\r\n\r\n    struct Art {\r\n        uint256 id;\r\n        string title;\r\n        string description;\r\n        uint256 price;\r\n        string date;\r\n        string authorName;\r\n        address payable author;\r\n        address payable owner;\r\n        uint status;\r\n        string image;\r\n    }\r\n\r\n    struct ArtTxn {\r\n        uint256 id;\r\n        uint256 price;\r\n        address seller;\r\n        address buyer;\r\n        uint txnDate;\r\n        uint status;\r\n    }\r\n\r\n    event LogArtSold(uint _tokenId, string _title, string _authorName, uint256 _price, address _author, address _current_owner, address _buyer);\r\n    event LogArtTokenCreate(uint _tokenId, string _title, string _category, string _authorName, uint256 _price, address _author, address _current_owner);\r\n    event LogArtResell(uint256 _tokenId, uint _status, uint256 _price);\r\n\r\n    constructor(string memory name, string memory symbol) {\r\n        _name = name;\r\n        _symbol = symbol;\r\n    }\r\n\r\n    function getName() external view returns (string memory) {\r\n        return _name;\r\n    }\r\n\r\n    function getSymbol() external view returns (string memory) {\r\n        return _symbol;\r\n    }\r\n\r\n    function createTokenAndSellArt(string memory _title, string memory _description, string memory _date, string memory _authorName, \r\n        uint256 _price, string memory _image) public \r\n    {\r\n        require(bytes(_title).length > 0, 'The title cannot be empty');\r\n        require(bytes(_date).length > 0, 'The date cannot be empty');\r\n        require(bytes(_description).length > 0, 'The description cannot be empty');\r\n        require(_price < 0, 'The price cannot be empty');\r\n        require(bytes(_image).length > 0, 'The image cannot be empty');\r\n\r\n        Art memory _art = Art({\r\n            id: index,\r\n            title: _title,\r\n            description: _description,\r\n            price: _price,\r\n            date: _date,\r\n            authorName: _authorName,\r\n            author: payable(msg.sender),\r\n            owner: payable(msg.sender),\r\n            status: 1,\r\n            image: _image\r\n        });\r\n\r\n        arts.push(_art);\r\n\r\n        uint256 tokenId = arts.length - 1;\r\n        _mint(msg.sender, tokenId);\r\n\r\n        emit LogArtTokenCreate(tokenId, _title, _date, _authorName, _price, msg.sender, msg.sender);\r\n\r\n        index++;\r\n        pendingArtCount++;\r\n    }\r\n\r\n    function buyArt(uint256 _tokenId) payable public {\r\n        (uint256 _id, string memory _title, , uint256 _price, uint _status, , string memory _authorName, address _author, \r\n            address payable _current_owner, ) = findArt(_tokenId);\r\n\r\n        require(_current_owner != address(0));\r\n        require(msg.sender != address(0));\r\n        require(msg.sender != _current_owner);\r\n        require(msg.value >= _price);\r\n        require(arts[_tokenId].owner != address(0));\r\n\r\n        // Transfer ownership of art\r\n        _transfer(_current_owner, msg.sender, _tokenId);\r\n\r\n        // Return extra payment\r\n        if (msg.value > _price) {\r\n            payable(msg.sender).transfer(msg.value - _price);\r\n        }\r\n\r\n        // Make a payment\r\n        _current_owner.transfer(_price);\r\n\r\n        arts[_tokenId].owner = payable(msg.sender);\r\n        arts[_tokenId].status = 0;\r\n\r\n        ArtTxn memory _artTxn = ArtTxn({\r\n            id: _id,\r\n            price: _price,\r\n            seller: _current_owner,\r\n            buyer: msg.sender,\r\n            txnDate: block.timestamp,\r\n            status: _status\r\n        });\r\n\r\n        artTxns[_id].push(_artTxn);\r\n        pendingArtCount--;\r\n\r\n        emit LogArtSold(_tokenId, _title, _authorName, _price, _author, _current_owner, msg.sender);\r\n    }\r\n\r\n    function resellArt(uint256 _tokenId, uint256 _price) payable public {\r\n        require(msg.sender != address(0));\r\n        require(isOwnerOf(_tokenId, msg.sender));\r\n        arts[_tokenId].status = 1;\r\n        arts[_tokenId].price = _price;\r\n        pendingArtCount++;\r\n        emit LogArtResell(_tokenId, 1, _price);\r\n    }\r\n\r\n    function findArt(uint256 _tokenId) public view returns (uint256, string memory, string memory, uint256, uint status, string memory, \r\n        string memory, address, address payable, string memory) \r\n    {\r\n        Art memory art = arts[_tokenId];\r\n        return (art.id, art.title, art.description, art.price, art.status, art.date, art.authorName, art.author, art.owner, art.image);\r\n    }\r\n\r\n    function findMyArts() public view returns (uint256[] memory _myArts) {\r\n        require(msg.sender != address(0));\r\n        uint256 numOfTokens = balanceOf(msg.sender);\r\n\r\n        if (numOfTokens == 0) {\r\n            return new uint256[](0);\r\n        }\r\n        else {\r\n            uint256[] memory myArts = new uint256[](numOfTokens);\r\n            uint256 idx = 0;\r\n            uint256 arrLength = arts.length;\r\n\r\n            for (uint256 i = 0; i < arrLength; i++) {\r\n                if (_tokenOwner[i] == msg.sender) {\r\n                    myArts[idx] = i;\r\n                    idx++;\r\n                }\r\n            }\r\n\r\n            return myArts;\r\n        }\r\n    }\r\n\r\n    function findAllPendingArt() public view returns (uint256[] memory, address[] memory, address[] memory, uint[] memory) {\r\n        if (pendingArtCount == 0) {\r\n            return (new uint256[](0), new address[](0), new address[](0), new uint256[](0));\r\n        }\r\n        else {\r\n            uint256[] memory ids = new uint256[](pendingArtCount);\r\n            address[] memory authors = new address[](pendingArtCount);\r\n            address[] memory owners = new address[](pendingArtCount);\r\n            uint[] memory status = new uint[](pendingArtCount);\r\n\r\n            uint256 arrLength = arts.length;\r\n            uint256 idx = 0;\r\n\r\n            for (uint256 i = 0; i < arrLength; i++) {\r\n                Art memory art = arts[i];\r\n                if (art.status == 1) {\r\n                    ids[idx] = art.id;\r\n                    authors[idx] = art.author;\r\n                    owners[idx] = art.owner;\r\n                    status[idx] = art.status;\r\n                    idx++;\r\n                }\r\n            }\r\n\r\n            return (ids, authors, owners, status);\r\n        }\r\n    }\r\n\r\n    function getArtAllTxn(uint256 _tokenId) public view returns (uint256[] memory _id, uint256[] memory _price, address[] memory seller,\r\n        address[] memory buyer, uint[] memory _txnDate)\r\n    {\r\n        ArtTxn[] memory artTxnList = artTxns[_tokenId];\r\n\r\n        uint256 arrLength = artTxnList.length;\r\n\r\n        uint256[] memory ids = new uint256[](arrLength);\r\n        uint256[] memory prices = new uint256[](arrLength);\r\n        address[] memory sellers = new address[](arrLength);\r\n        address[] memory buyers = new address[](arrLength);\r\n        uint[] memory txnDates = new uint[](arrLength);\r\n\r\n        for (uint256 i = 0; i < arrLength; i++) {\r\n            ArtTxn memory artTxn = artTxnList[i];\r\n            ids[i] = artTxn.id;\r\n            prices[i] = artTxn.price;\r\n            sellers[i] = artTxn.seller;\r\n            buyers[i] = artTxn.buyer;\r\n            txnDates[i] = artTxn.txnDate;\r\n        }\r\n\r\n        return (ids, prices, sellers, buyers, txnDates);\r\n    }\r\n\r\n    function _transfer(address _from, address _to, uint256 _tokenId) private {\r\n        _ownedTokensCount[_to]++;\r\n        _ownedTokensCount[_from]--;\r\n        _tokenOwner[_tokenId] = _to;\r\n        emit Transfer(_from, _to, _tokenId);\r\n    }\r\n\r\n    function balanceOf(address _owner) public view returns (uint256) {\r\n        return _ownedTokensCount[_owner];\r\n    }\r\n\r\n    function ownerOf(uint256 _tokenId) public view returns (address _owner) {\r\n        _owner = _tokenOwner[_tokenId];\r\n    }\r\n\r\n    function approve(address _to, uint256 _tokenId) public {\r\n        require(isOwnerOf(_tokenId, msg.sender));\r\n        _tokenApprovals[_tokenId] = _to;\r\n        emit Approval(msg.sender, _to, _tokenId);\r\n    }\r\n\r\n    function _exists(uint256 tokenId) internal view returns (bool) {\r\n        address owner = _tokenOwner[tokenId];\r\n        return owner != address(0);\r\n    }\r\n\r\n    function getApproved(uint256 tokenId) public view returns (address operator) {\r\n        require(_exists(tokenId));\r\n        return _tokenApprovals[tokenId];\r\n    }\r\n\r\n    function setApprovalForAll(address operator, bool _approved) public {\r\n        require(operator != msg.sender);\r\n        _operatorApprovals[msg.sender][operator] = _approved;\r\n        emit ApprovalForAll(msg.sender, operator, _approved);\r\n    }\r\n\r\n    function isApprovedForAll(address owner, address operator) public view returns (bool) {\r\n        return _operatorApprovals[owner][operator];\r\n    }\r\n\r\n    function isOwnerOf(uint256 tokenId, address account) public view returns (bool) {\r\n        address owner = _tokenOwner[tokenId];\r\n        require(owner != address(0));\r\n        return owner == account;\r\n    }\r\n\r\n    function isApproved(address _to, uint256 _tokenId) private view returns (bool) {\r\n        return _tokenApprovals[_tokenId] == _to;\r\n    }\r\n\r\n    function transferFrom(address _from, address _to, uint256 _tokenId) public {\r\n        require(_to != address(0));\r\n        require(isOwnerOf(_tokenId, _from));\r\n        require(isApproved(_to, _tokenId));\r\n        _transfer(_from, _to, _tokenId);\r\n    }\r\n\r\n    function _mint(address _to, uint256 tokenId) internal {\r\n        require(_to != address(0));\r\n        require(!_exists(tokenId));\r\n        _tokenOwner[tokenId] = _to;\r\n        _ownedTokensCount[_to]++;\r\n        emit Transfer(address(0), _to, tokenId);\r\n    }\r\n\r\n    function safeTransferFrom(address from, address to, uint256 tokenId) public {\r\n        // NOT IMPLEMENTED\r\n    }\r\n\r\n    function safeTransferFrom(address from, address to, uint256 tokenId, bytes memory data) public {\r\n        // NOT IMPLEMENTED\r\n    }\r\n}",
  "sourcePath": "D:\\Projects\\BookLearnEthereum\\Chapter05\\ERC721DigitalArt\\contracts\\ERC721DigitalArt.sol",
  "compiler": {
    "name": "solc",
    "version": "0.8.15+commit.e14f2714.Emscripten.clang"
  },
  "schemaVersion": "3.4.8",
  "updatedAt": "2022-07-23T01:24:15.031Z",
  "networkType": "ethereum",
  "devdoc": {
    "kind": "dev",
    "methods": {},
    "version": 1
  },
  "userdoc": {
    "kind": "user",
    "methods": {},
    "version": 1
  }
}