{
  "contractName": "DigitalArt",
  "abi": [
    {
      "inputs": [
        {
          "internalType": "string",
          "name": "name",
          "type": "string"
        },
        {
          "internalType": "string",
          "name": "symbol",
          "type": "string"
        }
      ],
      "stateMutability": "nonpayable",
      "type": "constructor"
    },
    {
      "anonymous": false,
      "inputs": [
        {
          "indexed": true,
          "internalType": "address",
          "name": "owner",
          "type": "address"
        },
        {
          "indexed": true,
          "internalType": "address",
          "name": "approved",
          "type": "address"
        },
        {
          "indexed": true,
          "internalType": "uint256",
          "name": "tokenId",
          "type": "uint256"
        }
      ],
      "name": "Approval",
      "type": "event"
    },
    {
      "anonymous": false,
      "inputs": [
        {
          "indexed": true,
          "internalType": "address",
          "name": "owner",
          "type": "address"
        },
        {
          "indexed": true,
          "internalType": "address",
          "name": "operator",
          "type": "address"
        },
        {
          "indexed": false,
          "internalType": "bool",
          "name": "approved",
          "type": "bool"
        }
      ],
      "name": "ApprovalForAll",
      "type": "event"
    },
    {
      "anonymous": false,
      "inputs": [
        {
          "indexed": true,
          "internalType": "address",
          "name": "from",
          "type": "address"
        },
        {
          "indexed": true,
          "internalType": "address",
          "name": "to",
          "type": "address"
        },
        {
          "indexed": true,
          "internalType": "uint256",
          "name": "tokenId",
          "type": "uint256"
        }
      ],
      "name": "Transfer",
      "type": "event"
    },
    {
      "inputs": [],
      "name": "getName",
      "outputs": [
        {
          "internalType": "string",
          "name": "",
          "type": "string"
        }
      ],
      "stateMutability": "view",
      "type": "function"
    },
    {
      "inputs": [],
      "name": "getSymbol",
      "outputs": [
        {
          "internalType": "string",
          "name": "",
          "type": "string"
        }
      ],
      "stateMutability": "view",
      "type": "function"
    },
    {
      "inputs": [
        {
          "internalType": "address",
          "name": "_owner",
          "type": "address"
        }
      ],
      "name": "balanceOf",
      "outputs": [
        {
          "internalType": "uint256",
          "name": "",
          "type": "uint256"
        }
      ],
      "stateMutability": "view",
      "type": "function"
    },
    {
      "inputs": [
        {
          "internalType": "uint256",
          "name": "_tokenId",
          "type": "uint256"
        }
      ],
      "name": "ownerOf",
      "outputs": [
        {
          "internalType": "address",
          "name": "_owner",
          "type": "address"
        }
      ],
      "stateMutability": "view",
      "type": "function"
    },
    {
      "inputs": [
        {
          "internalType": "address",
          "name": "_to",
          "type": "address"
        },
        {
          "internalType": "uint256",
          "name": "_tokenId",
          "type": "uint256"
        }
      ],
      "name": "approve",
      "outputs": [],
      "stateMutability": "nonpayable",
      "type": "function"
    },
    {
      "inputs": [
        {
          "internalType": "uint256",
          "name": "tokenId",
          "type": "uint256"
        }
      ],
      "name": "getApproved",
      "outputs": [
        {
          "internalType": "address",
          "name": "operator",
          "type": "address"
        }
      ],
      "stateMutability": "view",
      "type": "function"
    },
    {
      "inputs": [
        {
          "internalType": "address",
          "name": "operator",
          "type": "address"
        },
        {
          "internalType": "bool",
          "name": "_approved",
          "type": "bool"
        }
      ],
      "name": "setApprovalForAll",
      "outputs": [],
      "stateMutability": "nonpayable",
      "type": "function"
    },
    {
      "inputs": [
        {
          "internalType": "address",
          "name": "owner",
          "type": "address"
        },
        {
          "internalType": "address",
          "name": "operator",
          "type": "address"
        }
      ],
      "name": "isApprovedForAll",
      "outputs": [
        {
          "internalType": "bool",
          "name": "",
          "type": "bool"
        }
      ],
      "stateMutability": "view",
      "type": "function"
    },
    {
      "inputs": [
        {
          "internalType": "uint256",
          "name": "tokenId",
          "type": "uint256"
        },
        {
          "internalType": "address",
          "name": "account",
          "type": "address"
        }
      ],
      "name": "isOwnerOf",
      "outputs": [
        {
          "internalType": "bool",
          "name": "",
          "type": "bool"
        }
      ],
      "stateMutability": "view",
      "type": "function"
    },
    {
      "inputs": [
        {
          "internalType": "address",
          "name": "_from",
          "type": "address"
        },
        {
          "internalType": "address",
          "name": "_to",
          "type": "address"
        },
        {
          "internalType": "uint256",
          "name": "_tokenId",
          "type": "uint256"
        }
      ],
      "name": "transferFrom",
      "outputs": [],
      "stateMutability": "nonpayable",
      "type": "function"
    },
    {
      "inputs": [
        {
          "internalType": "address",
          "name": "from",
          "type": "address"
        },
        {
          "internalType": "address",
          "name": "to",
          "type": "address"
        },
        {
          "internalType": "uint256",
          "name": "tokenId",
          "type": "uint256"
        }
      ],
      "name": "safeTransferFrom",
      "outputs": [],
      "stateMutability": "nonpayable",
      "type": "function"
    },
    {
      "inputs": [
        {
          "internalType": "address",
          "name": "from",
          "type": "address"
        },
        {
          "internalType": "address",
          "name": "to",
          "type": "address"
        },
        {
          "internalType": "uint256",
          "name": "tokenId",
          "type": "uint256"
        },
        {
          "internalType": "bytes",
          "name": "data",
          "type": "bytes"
        }
      ],
      "name": "safeTransferFrom",
      "outputs": [],
      "stateMutability": "nonpayable",
      "type": "function"
    }
  ],
  "bytecode": "0x60806040523480156200001157600080fd5b50604051620016d0380380620016d0833981810160405281019062000037919062000200565b8160009081620000489190620004d0565b5080600190816200005a9190620004d0565b505050620005b7565b6000604051905090565b600080fd5b600080fd5b600080fd5b600080fd5b6000601f19601f8301169050919050565b7f4e487b7100000000000000000000000000000000000000000000000000000000600052604160045260246000fd5b620000cc8262000081565b810181811067ffffffffffffffff82111715620000ee57620000ed62000092565b5b80604052505050565b60006200010362000063565b9050620001118282620000c1565b919050565b600067ffffffffffffffff82111562000134576200013362000092565b5b6200013f8262000081565b9050602081019050919050565b60005b838110156200016c5780820151818401526020810190506200014f565b838111156200017c576000848401525b50505050565b600062000199620001938462000116565b620000f7565b905082815260208101848484011115620001b857620001b76200007c565b5b620001c58482856200014c565b509392505050565b600082601f830112620001e557620001e462000077565b5b8151620001f784826020860162000182565b91505092915050565b600080604083850312156200021a57620002196200006d565b5b600083015167ffffffffffffffff8111156200023b576200023a62000072565b5b6200024985828601620001cd565b925050602083015167ffffffffffffffff8111156200026d576200026c62000072565b5b6200027b85828601620001cd565b9150509250929050565b600081519050919050565b7f4e487b7100000000000000000000000000000000000000000000000000000000600052602260045260246000fd5b60006002820490506001821680620002d857607f821691505b602082108103620002ee57620002ed62000290565b5b50919050565b60008190508160005260206000209050919050565b60006020601f8301049050919050565b600082821b905092915050565b600060088302620003587fffffffffffffffffffffffffffffffffffffffffffffffffffffffffffffffff8262000319565b62000364868362000319565b95508019841693508086168417925050509392505050565b6000819050919050565b6000819050919050565b6000620003b1620003ab620003a5846200037c565b62000386565b6200037c565b9050919050565b6000819050919050565b620003cd8362000390565b620003e5620003dc82620003b8565b84845462000326565b825550505050565b600090565b620003fc620003ed565b62000409818484620003c2565b505050565b5b81811015620004315762000425600082620003f2565b6001810190506200040f565b5050565b601f82111562000480576200044a81620002f4565b620004558462000309565b8101602085101562000465578190505b6200047d620004748562000309565b8301826200040e565b50505b505050565b600082821c905092915050565b6000620004a56000198460080262000485565b1980831691505092915050565b6000620004c0838362000492565b9150826002028217905092915050565b620004db8262000285565b67ffffffffffffffff811115620004f757620004f662000092565b5b620005038254620002bf565b6200051082828562000435565b600060209050601f83116001811462000548576000841562000533578287015190505b6200053f8582620004b2565b865550620005af565b601f1984166200055886620002f4565b60005b8281101562000582578489015182556001820191506020850194506020810190506200055b565b86831015620005a257848901516200059e601f89168262000492565b8355505b6001600288020188555050505b505050505050565b61110980620005c76000396000f3fe608060405234801561001057600080fd5b50600436106100b45760003560e01c80636352211e116100715780636352211e1461017957806370a08231146101a95780639ac016e2146101d9578063a22cb46514610209578063b88d4fde14610225578063e985e9c514610241576100b4565b8063081812fc146100b9578063095ea7b3146100e9578063150704011461010557806317d7de7c1461012357806323b872dd1461014157806342842e0e1461015d575b600080fd5b6100d360048036038101906100ce9190610a9f565b610271565b6040516100e09190610b0d565b60405180910390f35b61010360048036038101906100fe9190610b54565b6102c0565b005b61010d610384565b60405161011a9190610c2d565b60405180910390f35b61012b610416565b6040516101389190610c2d565b60405180910390f35b61015b60048036038101906101569190610c4f565b6104a8565b005b61017760048036038101906101729190610c4f565b610517565b005b610193600480360381019061018e9190610a9f565b61051c565b6040516101a09190610b0d565b60405180910390f35b6101c360048036038101906101be9190610ca2565b610559565b6040516101d09190610cde565b60405180910390f35b6101f360048036038101906101ee9190610cf9565b6105a2565b6040516102009190610d54565b60405180910390f35b610223600480360381019061021e9190610d9b565b61064c565b005b61023f600480360381019061023a9190610f10565b610781565b005b61025b60048036038101906102569190610f93565b610787565b6040516102689190610d54565b60405180910390f35b600061027c8261081b565b61028557600080fd5b6004600083815260200190815260200160002060009054906101000a900473ffffffffffffffffffffffffffffffffffffffff169050919050565b6102ca81336105a2565b6102d357600080fd5b816004600083815260200190815260200160002060006101000a81548173ffffffffffffffffffffffffffffffffffffffff021916908373ffffffffffffffffffffffffffffffffffffffff160217905550808273ffffffffffffffffffffffffffffffffffffffff163373ffffffffffffffffffffffffffffffffffffffff167f8c5be1e5ebec7d5bd14f71427d1e84f3dd0314c0f7b2291e5b200ac8c7c3b92560405160405180910390a45050565b60606001805461039390611002565b80601f01602080910402602001604051908101604052809291908181526020018280546103bf90611002565b801561040c5780601f106103e15761010080835404028352916020019161040c565b820191906000526020600020905b8154815290600101906020018083116103ef57829003601f168201915b5050505050905090565b60606000805461042590611002565b80601f016020809104026020016040519081016040528092919081815260200182805461045190611002565b801561049e5780601f106104735761010080835404028352916020019161049e565b820191906000526020600020905b81548152906001019060200180831161048157829003601f168201915b5050505050905090565b600073ffffffffffffffffffffffffffffffffffffffff168273ffffffffffffffffffffffffffffffffffffffff16036104e157600080fd5b6104eb81846105a2565b6104f457600080fd5b6104fe828261088d565b61050757600080fd5b6105128383836108f9565b505050565b505050565b60006002600083815260200190815260200160002060009054906101000a900473ffffffffffffffffffffffffffffffffffffffff169050919050565b6000600360008373ffffffffffffffffffffffffffffffffffffffff1673ffffffffffffffffffffffffffffffffffffffff168152602001908152602001600020549050919050565b6000806002600085815260200190815260200160002060009054906101000a900473ffffffffffffffffffffffffffffffffffffffff169050600073ffffffffffffffffffffffffffffffffffffffff168173ffffffffffffffffffffffffffffffffffffffff160361061457600080fd5b8273ffffffffffffffffffffffffffffffffffffffff168173ffffffffffffffffffffffffffffffffffffffff161491505092915050565b3373ffffffffffffffffffffffffffffffffffffffff168273ffffffffffffffffffffffffffffffffffffffff160361068457600080fd5b80600560003373ffffffffffffffffffffffffffffffffffffffff1673ffffffffffffffffffffffffffffffffffffffff16815260200190815260200160002060008473ffffffffffffffffffffffffffffffffffffffff1673ffffffffffffffffffffffffffffffffffffffff16815260200190815260200160002060006101000a81548160ff0219169083151502179055508173ffffffffffffffffffffffffffffffffffffffff163373ffffffffffffffffffffffffffffffffffffffff167f17307eab39ab6107e8899845ad3d59bd9653f200f220920489ca2b5937696c31836040516107759190610d54565b60405180910390a35050565b50505050565b6000600560008473ffffffffffffffffffffffffffffffffffffffff1673ffffffffffffffffffffffffffffffffffffffff16815260200190815260200160002060008373ffffffffffffffffffffffffffffffffffffffff1673ffffffffffffffffffffffffffffffffffffffff16815260200190815260200160002060009054906101000a900460ff16905092915050565b6000806002600084815260200190815260200160002060009054906101000a900473ffffffffffffffffffffffffffffffffffffffff169050600073ffffffffffffffffffffffffffffffffffffffff168173ffffffffffffffffffffffffffffffffffffffff161415915050919050565b60008273ffffffffffffffffffffffffffffffffffffffff166004600084815260200190815260200160002060009054906101000a900473ffffffffffffffffffffffffffffffffffffffff1673ffffffffffffffffffffffffffffffffffffffff1614905092915050565b600360008373ffffffffffffffffffffffffffffffffffffffff1673ffffffffffffffffffffffffffffffffffffffff168152602001908152602001600020600081548092919061094990611062565b9190505550600360008473ffffffffffffffffffffffffffffffffffffffff1673ffffffffffffffffffffffffffffffffffffffff168152602001908152602001600020600081548092919061099e906110aa565b9190505550816002600083815260200190815260200160002060006101000a81548173ffffffffffffffffffffffffffffffffffffffff021916908373ffffffffffffffffffffffffffffffffffffffff160217905550808273ffffffffffffffffffffffffffffffffffffffff168473ffffffffffffffffffffffffffffffffffffffff167fddf252ad1be2c89b69c2b068fc378daa952ba7f163c4a11628f55a4df523b3ef60405160405180910390a4505050565b6000604051905090565b600080fd5b600080fd5b6000819050919050565b610a7c81610a69565b8114610a8757600080fd5b50565b600081359050610a9981610a73565b92915050565b600060208284031215610ab557610ab4610a5f565b5b6000610ac384828501610a8a565b91505092915050565b600073ffffffffffffffffffffffffffffffffffffffff82169050919050565b6000610af782610acc565b9050919050565b610b0781610aec565b82525050565b6000602082019050610b226000830184610afe565b92915050565b610b3181610aec565b8114610b3c57600080fd5b50565b600081359050610b4e81610b28565b92915050565b60008060408385031215610b6b57610b6a610a5f565b5b6000610b7985828601610b3f565b9250506020610b8a85828601610a8a565b9150509250929050565b600081519050919050565b600082825260208201905092915050565b60005b83811015610bce578082015181840152602081019050610bb3565b83811115610bdd576000848401525b50505050565b6000601f19601f8301169050919050565b6000610bff82610b94565b610c098185610b9f565b9350610c19818560208601610bb0565b610c2281610be3565b840191505092915050565b60006020820190508181036000830152610c478184610bf4565b905092915050565b600080600060608486031215610c6857610c67610a5f565b5b6000610c7686828701610b3f565b9350506020610c8786828701610b3f565b9250506040610c9886828701610a8a565b9150509250925092565b600060208284031215610cb857610cb7610a5f565b5b6000610cc684828501610b3f565b91505092915050565b610cd881610a69565b82525050565b6000602082019050610cf36000830184610ccf565b92915050565b60008060408385031215610d1057610d0f610a5f565b5b6000610d1e85828601610a8a565b9250506020610d2f85828601610b3f565b9150509250929050565b60008115159050919050565b610d4e81610d39565b82525050565b6000602082019050610d696000830184610d45565b92915050565b610d7881610d39565b8114610d8357600080fd5b50565b600081359050610d9581610d6f565b92915050565b60008060408385031215610db257610db1610a5f565b5b6000610dc085828601610b3f565b9250506020610dd185828601610d86565b9150509250929050565b600080fd5b600080fd5b7f4e487b7100000000000000000000000000000000000000000000000000000000600052604160045260246000fd5b610e1d82610be3565b810181811067ffffffffffffffff82111715610e3c57610e3b610de5565b5b80604052505050565b6000610e4f610a55565b9050610e5b8282610e14565b919050565b600067ffffffffffffffff821115610e7b57610e7a610de5565b5b610e8482610be3565b9050602081019050919050565b82818337600083830152505050565b6000610eb3610eae84610e60565b610e45565b905082815260208101848484011115610ecf57610ece610de0565b5b610eda848285610e91565b509392505050565b600082601f830112610ef757610ef6610ddb565b5b8135610f07848260208601610ea0565b91505092915050565b60008060008060808587031215610f2a57610f29610a5f565b5b6000610f3887828801610b3f565b9450506020610f4987828801610b3f565b9350506040610f5a87828801610a8a565b925050606085013567ffffffffffffffff811115610f7b57610f7a610a64565b5b610f8787828801610ee2565b91505092959194509250565b60008060408385031215610faa57610fa9610a5f565b5b6000610fb885828601610b3f565b9250506020610fc985828601610b3f565b9150509250929050565b7f4e487b7100000000000000000000000000000000000000000000000000000000600052602260045260246000fd5b6000600282049050600182168061101a57607f821691505b60208210810361102d5761102c610fd3565b5b50919050565b7f4e487b7100000000000000000000000000000000000000000000000000000000600052601160045260246000fd5b600061106d82610a69565b91507fffffffffffffffffffffffffffffffffffffffffffffffffffffffffffffffff820361109f5761109e611033565b5b600182019050919050565b60006110b582610a69565b9150600082036110c8576110c7611033565b5b60018203905091905056fea264697066735822122062a5dca736ba09ca4f83cb5f9f766f7a168bbd452f6edd6cd0473374281aa97864736f6c634300080f0033",
  "immutableReferences": {},
  "source": "// SPDX-License-Identifier: GPL-3.0\r\npragma solidity 0.8.15;\r\n\r\ninterface ERC721 {\r\n    function balanceOf(address owner) external view returns (uint256 balance);\r\n\r\n    function ownerOf(uint256 tokenId) external view returns (address owner);\r\n\r\n    function approve(address to, uint256 tokenId) external;\r\n\r\n    function getApproved(uint256 tokenId) external view returns (address operator);\r\n\r\n    function setApprovalForAll(address operator, bool _approved) external;\r\n\r\n    function isApprovedForAll(address owner, address operator) external view returns (bool);\r\n\r\n    function transferFrom(address from, address to, uint256 tokenId) external;\r\n\r\n    function safeTransferFrom(address from, address to, uint256 tokenId) external;\r\n\r\n    function safeTransferFrom(address from, address to, uint256 tokenId, bytes memory data) external;\r\n\r\n    event Transfer(address indexed from, address indexed to, uint256 indexed tokenId);\r\n\r\n    event Approval(address indexed owner, address indexed approved, uint256 indexed tokenId);\r\n\r\n    event ApprovalForAll(address indexed owner, address indexed operator, bool approved);\r\n}\r\n\r\ncontract DigitalArt is ERC721 {\r\n    string private _name;\r\n    string private _symbol;\r\n\r\n    mapping(uint256 => address) private _tokenOwner;\r\n    mapping(address => uint256) private _ownedTokensCount;\r\n    mapping(uint256 => address) private _tokenApprovals;\r\n    mapping(address => mapping(address => bool)) private _operatorApprovals;\r\n\r\n    constructor(string memory name, string memory symbol) {\r\n        _name = name;\r\n        _symbol = symbol;\r\n    }\r\n\r\n    function getName() external view returns (string memory) {\r\n        return _name;\r\n    }\r\n\r\n    function getSymbol() external view returns (string memory) {\r\n        return _symbol;\r\n    }\r\n\r\n    function _transfer(address _from, address _to, uint256 _tokenId) private {\r\n        _ownedTokensCount[_to]++;\r\n        _ownedTokensCount[_from]--;\r\n        _tokenOwner[_tokenId] = _to;\r\n        emit Transfer(_from, _to, _tokenId);\r\n    }\r\n\r\n    function balanceOf(address _owner) public view returns (uint256) {\r\n        return _ownedTokensCount[_owner];\r\n    }\r\n\r\n    function ownerOf(uint256 _tokenId) public view returns (address _owner) {\r\n        _owner = _tokenOwner[_tokenId];\r\n    }\r\n\r\n    function approve(address _to, uint256 _tokenId) public {\r\n        require(isOwnerOf(_tokenId, msg.sender));\r\n        _tokenApprovals[_tokenId] = _to;\r\n        emit Approval(msg.sender, _to, _tokenId);\r\n    }\r\n\r\n    function _exists(uint256 tokenId) internal view returns (bool) {\r\n        address owner = _tokenOwner[tokenId];\r\n        return owner != address(0);\r\n    }\r\n\r\n    function getApproved(uint256 tokenId) public view returns (address operator) {\r\n        require(_exists(tokenId));\r\n        return _tokenApprovals[tokenId];\r\n    }\r\n\r\n    function setApprovalForAll(address operator, bool _approved) public {\r\n        require(operator != msg.sender);\r\n        _operatorApprovals[msg.sender][operator] = _approved;\r\n        emit ApprovalForAll(msg.sender, operator, _approved);\r\n    }\r\n\r\n    function isApprovedForAll(address owner, address operator) public view returns (bool) {\r\n        return _operatorApprovals[owner][operator];\r\n    }\r\n\r\n    function isOwnerOf(uint256 tokenId, address account) public view returns (bool) {\r\n        address owner = _tokenOwner[tokenId];\r\n        require(owner != address(0));\r\n        return owner == account;\r\n    }\r\n\r\n    function isApproved(address _to, uint256 _tokenId) private view returns (bool) {\r\n        return _tokenApprovals[_tokenId] == _to;\r\n    }\r\n\r\n    function transferFrom(address _from, address _to, uint256 _tokenId) public {\r\n        require(_to != address(0));\r\n        require(isOwnerOf(_tokenId, _from));\r\n        require(isApproved(_to, _tokenId));\r\n        _transfer(_from, _to, _tokenId);\r\n    }\r\n\r\n    function safeTransferFrom(address from, address to, uint256 tokenId) public {\r\n        // NOT IMPLEMENTED\r\n    }\r\n\r\n    function safeTransferFrom(address from, address to, uint256 tokenId, bytes memory data) public {\r\n        // NOT IMPLEMENTED\r\n    }\r\n}",
  "sourcePath": "D:\\Projects\\BookLearnEthereum\\Chapter06\\DigitalArtERC721Token\\contracts\\DigitalArtERC721Token.sol",
  "compiler": {
    "name": "solc",
    "version": "0.8.15+commit.e14f2714.Emscripten.clang"
  },
  "schemaVersion": "3.4.8",
  "updatedAt": "2022-07-12T15:01:26.333Z",
  "devdoc": {
    "kind": "dev",
    "methods": {},
    "version": 1
  },
  "userdoc": {
    "kind": "user",
    "methods": {},
    "version": 1
  }
}